{
  "contractName": "AddData",
  "abi": [
    {
      "inputs": [],
      "payable": false,
      "stateMutability": "nonpayable",
      "type": "constructor"
    },
    {
      "anonymous": false,
      "inputs": [
        {
          "indexed": false,
          "internalType": "uint256",
          "name": "id",
          "type": "uint256"
        },
        {
          "indexed": false,
          "internalType": "string",
          "name": "jsonvalue",
          "type": "string"
        },
        {
          "indexed": false,
          "internalType": "uint256",
          "name": "identity",
          "type": "uint256"
        },
        {
          "indexed": false,
          "internalType": "address payable",
          "name": "publickey",
          "type": "address"
        },
        {
          "indexed": false,
          "internalType": "bool",
          "name": "purchased",
          "type": "bool"
        }
      ],
      "name": "DataCreated",
      "type": "event"
    },
    {
      "constant": true,
      "inputs": [],
      "name": "dataCount",
      "outputs": [
        {
          "internalType": "uint256",
          "name": "",
          "type": "uint256"
        }
      ],
      "payable": false,
      "stateMutability": "view",
      "type": "function"
    },
    {
      "constant": true,
      "inputs": [
        {
          "internalType": "uint256",
          "name": "",
          "type": "uint256"
        }
      ],
      "name": "datas",
      "outputs": [
        {
          "internalType": "uint256",
          "name": "id",
          "type": "uint256"
        },
        {
          "internalType": "string",
          "name": "jsonvalue",
          "type": "string"
        },
        {
          "internalType": "uint256",
          "name": "identity",
          "type": "uint256"
        },
        {
          "internalType": "address payable",
          "name": "publickey",
          "type": "address"
        },
        {
          "internalType": "bool",
          "name": "purchased",
          "type": "bool"
        }
      ],
      "payable": false,
      "stateMutability": "view",
      "type": "function"
    },
    {
      "constant": true,
      "inputs": [],
      "name": "name",
      "outputs": [
        {
          "internalType": "string",
          "name": "",
          "type": "string"
        }
      ],
      "payable": false,
      "stateMutability": "view",
      "type": "function"
    },
    {
      "constant": false,
      "inputs": [
        {
          "internalType": "string",
          "name": "_jsonvalue",
          "type": "string"
        },
        {
          "internalType": "uint256",
          "name": "_identity",
          "type": "uint256"
        }
      ],
      "name": "createData",
      "outputs": [],
      "payable": false,
      "stateMutability": "nonpayable",
      "type": "function"
    }
  ],
  "bytecode": "0x6080604052600060015534801561001557600080fd5b506040518060400160405280601981526020017f53656375726520536f6674776172652045636f73797374656d0000000000000081525060009080519060200190610061929190610067565b5061010c565b828054600181600116156101000203166002900490600052602060002090601f016020900481019282601f106100a857805160ff19168380011785556100d6565b828001600101855582156100d6579182015b828111156100d55782518255916020019190600101906100ba565b5b5090506100e391906100e7565b5090565b61010991905b808211156101055760008160009055506001016100ed565b5090565b90565b6107358061011b6000396000f3fe608060405234801561001057600080fd5b506004361061004c5760003560e01c806306fdde03146100515780635da40c47146100d457806371e50a57146100f2578063c0a094fd146101b7575b600080fd5b6100596102aa565b6040518080602001828103825283818151815260200191508051906020019080838360005b8381101561009957808201518184015260208101905061007e565b50505050905090810190601f1680156100c65780820380516001836020036101000a031916815260200191505b509250505060405180910390f35b6100dc610348565b6040518082815260200191505060405180910390f35b6101b56004803603604081101561010857600080fd5b810190808035906020019064010000000081111561012557600080fd5b82018360208201111561013757600080fd5b8035906020019184600183028401116401000000008311171561015957600080fd5b91908080601f016020809104026020016040519081016040528093929190818152602001838380828437600081840152601f19601f8201169050808301925050505050505091929192908035906020019092919050505061034e565b005b6101e3600480360360208110156101cd57600080fd5b8101908080359060200190929190505050610560565b60405180868152602001806020018581526020018473ffffffffffffffffffffffffffffffffffffffff1673ffffffffffffffffffffffffffffffffffffffff16815260200183151515158152602001828103825286818151815260200191508051906020019080838360005b8381101561026b578082015181840152602081019050610250565b50505050905090810190601f1680156102985780820380516001836020036101000a031916815260200191505b50965050505050505060405180910390f35b60008054600181600116156101000203166002900480601f0160208091040260200160405190810160405280929190818152602001828054600181600116156101000203166002900480156103405780601f1061031557610100808354040283529160200191610340565b820191906000526020600020905b81548152906001019060200180831161032357829003601f168201915b505050505081565b60015481565b600082511161035c57600080fd5b6000811161036957600080fd5b6001600081548092919060010191905055506040518060a0016040528060015481526020018381526020018281526020013373ffffffffffffffffffffffffffffffffffffffff168152602001600015158152506002600060015481526020019081526020016000206000820151816000015560208201518160010190805190602001906103f892919061065b565b506040820151816002015560608201518160030160006101000a81548173ffffffffffffffffffffffffffffffffffffffff021916908373ffffffffffffffffffffffffffffffffffffffff16021790555060808201518160030160146101000a81548160ff0219169083151502179055509050507f6624a19bcfd102e9cba165bc0d78c3372e8ab1d23e1595e7eb93878f98225b0a600154838333600060405180868152602001806020018581526020018473ffffffffffffffffffffffffffffffffffffffff1673ffffffffffffffffffffffffffffffffffffffff16815260200183151515158152602001828103825286818151815260200191508051906020019080838360005b8381101561051e578082015181840152602081019050610503565b50505050905090810190601f16801561054b5780820380516001836020036101000a031916815260200191505b50965050505050505060405180910390a15050565b6002602052806000526040600020600091509050806000015490806001018054600181600116156101000203166002900480601f0160208091040260200160405190810160405280929190818152602001828054600181600116156101000203166002900480156106125780601f106105e757610100808354040283529160200191610612565b820191906000526020600020905b8154815290600101906020018083116105f557829003601f168201915b5050505050908060020154908060030160009054906101000a900473ffffffffffffffffffffffffffffffffffffffff16908060030160149054906101000a900460ff16905085565b828054600181600116156101000203166002900490600052602060002090601f016020900481019282601f1061069c57805160ff19168380011785556106ca565b828001600101855582156106ca579182015b828111156106c95782518255916020019190600101906106ae565b5b5090506106d791906106db565b5090565b6106fd91905b808211156106f95760008160009055506001016106e1565b5090565b9056fea265627a7a723158200c79f100eb2d3323f57e59b063675132cf7ba58a18d86afe386e3be715af976564736f6c63430005100032",
  "source": "pragma solidity ^0.5.0;\n\ncontract AddData {\n    string public name;\n    uint public dataCount = 0;\n    mapping(uint => Data) public datas;\n\n    struct Data {\n        uint id;\n        string jsonvalue;\n        uint identity;\n        address payable publickey;\n        bool purchased;\n    }\n\n    event DataCreated(\n        uint id,\n        string jsonvalue,\n        uint identity,\n        address payable publickey,\n        bool purchased\n    );\n\n\n    constructor() public {\n        name = \"Secure Software Ecosystem\";\n    }\n\n    function createData(string memory _jsonvalue, uint _identity) public {\n        // Require a valid jsonvalue\n        require(bytes(_jsonvalue).length > 0);\n        // Require a valid identity\n        require(_identity > 0);\n        // Increment product count\n        dataCount ++;\n        // Create the product\n        datas[dataCount] = Data(dataCount, _jsonvalue, _identity, msg.sender, false);\n        // Trigger an event\n        emit DataCreated(dataCount, _jsonvalue, _identity, msg.sender, false);\n    }\n\n    \n}\n",
  "sourcePath": "C:/Users/Elena Baninemeh/marketplace/src/contracts/AddData.sol",
  "compiler": {
    "name": "solc",
    "version": "0.5.16+commit.9c3226ce.Emscripten.clang"
  },
  "schemaVersion": "3.2.2",
  "updatedAt": "2020-07-24T02:59:52.576Z",
  "networkType": "ethereum",
  "devdoc": {
    "methods": {}
  },
  "userdoc": {
    "methods": {}
  }
}